:100000000C943B000C9458000C9458000C9458002D
:100010000C9458000C9458000C9458000C94580000
:100020000C9458000C9458000C9458000C945800F0
:100030000C9458000C9458000C9472010C945800C5
:100040000C9458000C9458000C9458000C945800D0
:100050000C94580050616D69656320666C6173682B
:100060002000537465726F776E696B2000040A0A72
:100070000A111F1F0E0011241FBECFE5D8E0DEBFFE
:10008000CDBF10E0A0E6B0E0E2EAF8E002C00590E3
:100090000D92A836B107D9F720E0A8E6B0E001C07C
:1000A0001D92AA3EB207E1F70E947D030C944F0413
:1000B0000C940000899A889810BC88E089B982E085
:1000C0008BB986E880BD88E18AB908958CB9089516
:1000D000282FFC018E2F821B8617D8F4A091680070
:1000E0008191B0E0A659BF4F8C93559A80916800DA
:1000F0008F5F8F7790916900891308C0E091680045
:10010000F0E0E659FF4F8EE7808308958093680002
:10011000E1CF08950F931F93CF93DF93CDB7DEB751
:1001200028970FB6F894DEBF0FBECDBF28E00AE0D7
:1001300010E0FE01E20FF11DB8010E94CD03805DC9
:100140008083CB0121500097A1F768E0621B81E01A
:1001500090E08C0F9D1F820F911D0E9468002896D1
:100160000FB6F894DEBF0FBECDBFDF91CF911F91C8
:100170000F910895CF93DF9300D01F92CDB7DEB7D4
:1001800020916500309166004091670029833A8391
:100190004B830E948A0062E0CE0101960E946800B3
:1001A0000F900F900F90DF91CF9108950F931F93B1
:1001B000CF93DF931F92CDB7DEB78C018DE2898399
:1001C00017FF08C061E0CE0101960E9468001195FA
:1001D00001951109C8010E948A000F90DF91CF910B
:1001E0001F910F910895CF93DF9300D01F92CDB749
:1001F000DEB7209165003091660040916700298349
:100200003A834B830E94D60062E0CE0101960E94A1
:1002100068000F900F900F90DF91CF910895382FC5
:10022000FC016E2F631B21912111FBCF61110C94F6
:1002300068000895CF93DF9300D01F92CDB7DEB74B
:1002400020916500309166004091670029833A83D0
:100250004B830E940F0162E0CE0101960E9468006C
:100260000F900F900F90DF91CF910895FC01849132
:100270008823D9F0A0916800B0E0A659BF4F8C93B5
:10028000559A909168009F5F9F77809169003196A1
:10029000981308C0E0916800F0E0E659FF4F8EE740
:1002A0008083089590936800E2CF0895CF93DF9301
:1002B00000D01F92CDB7DEB7209165003091660067
:1002C0004091670029833A834B830E94360162E0A4
:1002D000CE0101960E9468000F900F900F90DF9161
:1002E000CF9108951F920F920FB60F9211248F9302
:1002F0009F93EF93FF93909169008091680098130A
:1003000002C0559811C0E0916900F0E0E659FF4F36
:1003100080818CB9809169008F5F809369008091A2
:1003200069008F7780936900FF91EF919F918F9182
:100330000F900FBE0F901F9018958A9AA09ABA9AA4
:100340008F9A84FF02C0929A01C0929885FF02C0E2
:10035000A89A01C0A89886FF02C0C29A01C0C2989C
:1003600087FF02C0979A01C09798AA9A95E09A953C
:10037000F1F70000AA9880FF02C0929A01C09298FB
:1003800081FF02C0A89A01C0A89882FF02C0C29A49
:1003900001C0C29883FF02C0979A01C09798AA9A99
:1003A00085E08A95F1F70000AA988FEE90E001971A
:1003B000F1F700C000000895AB980C949D01AB9A32
:1003C0000C949D018A9AA09ABA9A8F9AA39AA29A9B
:1003D000B89AAB98AA982FEF80E792E0215080401E
:1003E0009040E1F700C000009798C298A89A929AAE
:1003F00083E0AA9AE5E0EA95F1F70000AA98EFE019
:10040000F7E23197F1F700C00000815091F7929820
:10041000AA9AF5E0FA95F1F70000AA9887EC90E027
:100420000197F1F700C0000088E20E94DC0188E03B
:100430000E94DC0181E00E94DC01EFE0F7E23197ED
:10044000F1F700C0000086E00E94DC018CE00C9413
:10045000DC0181E00E94DC018FE097E20197F1F777
:1004600000C00000089582E00E94DC018FE097E266
:100470000197F1F700C000000895613011F490E495
:1004800001C090E08058890F0C94DC01811184E058
:1004900088600C94DC01811182E08C600C94DC019A
:1004A00091E0811101C090E0892F8E600C94DC01F5
:1004B000811188E0611164E08061862B0C94DC017D
:1004C000811182E091E0611190E09460892B0C949D
:1004D000DC010C94DF01CF93DF93EC018991882339
:1004E00019F00E94DF01FACFDF91CF910895CF93E9
:1004F000DF93FC018491EF012196882321F00E9473
:10050000DF01FE01F7CFDF91CF910895CF93DF9305
:10051000EC0121960E944704882321F00E94DF010C
:10052000CE01F6CFDF91CF910895CF93DF93CDB772
:10053000DEB727970FB6F894DEBF0FBECDBF4AE0F7
:10054000BE016F5F7F4F0E94E1030E946B022796FE
:100550000FB6F894DEBF0FBECDBFDF91CF910895E7
:10056000CF93DF9300D000D000D0CDB7DEB74AE004
:10057000BE016F5F7F4F0E941D040E946B02269692
:100580000FB6F894DEBF0FBECDBFDF91CF910895B7
:10059000CF93DF93CDB7DEB72C970FB6F894DEBFBD
:1005A0000FBECDBF2AE0AE014F5F5F4F0E94EC034C
:1005B0000E946B022C960FB6F894DEBF0FBECDBF23
:1005C000DF91CF910895CF93DF93CDB7DEB72B970F
:1005D0000FB6F894DEBF0FBECDBF2AE0AE014F5F6D
:1005E0005F4F0E94FB030E946B022B960FB6F8949C
:1005F000DEBF0FBECDBFDF91CF910895CF93DF93C4
:10060000CDB7DEB729970FB6F894DEBF0FBECDBFCA
:1006100020E1AE014F5F5F4F0E94EC030E946B022E
:1006200029960FB6F894DEBF0FBECDBFDF91CF91F4
:1006300008950F931F93CF93DF938B01877028E06A
:10064000829FC001112480640E94DC01E801085FE0
:100650001F4F89910E94DF01C017D107D1F7DF91A9
:10066000CF911F910F9108950F931F93CF93DF9315
:10067000EB01877028E0829FC001112480640E94F2
:10068000DC018E01085F1F4FFE0184910E94DF0193
:100690002196C017D107C1F7DF91CF911F910F911C
:1006A0000895EF92FF920F931F93CF93DF93EB0187
:1006B000877028E0829FC001112480640E94DC01C1
:1006C0008E01085F1F4F7E018FEFE81AF80ACE01F6
:1006D0000E9447040E94DF01E701E016F10699F746
:1006E000DF91CF911F910F91FF90EF900895882394
:1006F00011F0C09A0895C098089581B3886381BBB2
:1007000088E382BB0E945A000E94E201789481E053
:100710000E9477036DE670E080E00E9434030E943F
:10072000330282E690E00E94770280E090E00E942F
:10073000470490E00E94B002C6EFDFEF2FEF84E3A2
:100740009CE0215080409040E1F700C00000949868
:100750002FEF84E39CE0215080409040E1F700C0FF
:100760000000949A84E590E00E943601CE010E9438
:10077000F30061E080E00E943D0280E690E00E948C
:100780006B0261E080E00E943D02CE010E94950272
:1007900080E00E9469022196D1CFAA1BBB1B51E1C8
:1007A00007C0AA1FBB1FA617B70710F0A61BB70BE1
:1007B000881F991F5A95A9F780959095BC01CD0186
:1007C0000895BB274A3031F4992322F4BDE2909575
:1007D00081959F4F0C941E04BB272A3051F4992316
:1007E00042F4BDE290958095709561957F4F8F4F53
:1007F0009F4F0C94FC03BB27FA01A62F62177105CB
:1008000081059105330B30FB66F0AA27660F771F31
:10081000881F991FAA1FA21710F0A21B63953850BA
:10082000A9F7A05DAA3308F0A95DA19336F7B1112D
:10083000B1931082CA010C943704BB27FB015527E2
:10084000AA27880F991FAA1FA41710F0A41B83952D
:100850005051B9F7A05DAA3308F0A95DA1930097A4
:1008600079F7B111B1931192CB010C943704DC01EB
:10087000FC01672F71917723E1F7329704C07C91D7
:100880006D9370836291AE17BF07C8F30895E19925
:10089000FECF9FBB8EBBE09A99278DB30895F89445
:0208A000FFCF88
:0808A20020202020000A0D00B7
:00000001FF
