:107C000001C0D1C011248FE598E09EBF8DBF84B71D
:107C1000882361F0982F9A70923041F081FF02C062
:107C200097EF94BF282E80E0D9D0EAC185E08EBDC1
:107C300082E08BB988E18AB986E880BD87E689B998
:107C40008EE0CCD0B89A84E028E13EEF44E051E0E9
:107C50003DBD2CBD48BF08B602FEFDCF98B39527A9
:107C600098BBA8955F9902C0815091F7B0D081343C
:107C700079F4ADD0182FB6D0123811F480E004C0DA
:107C800088E0113809F083E09ED080E19CD0EECFEF
:107C9000823419F484E1AED0F8CF853411F485E054
:107CA000FACF853541F493D0C82F91D0D82FCC0F7F
:107CB000DD1F98D0EACF863519F484E09BD0DECF63
:107CC000843609F044C083D082D0082F80D0D82ECB
:107CD000102F90E6E92EF12C57018FEFA81AB80A61
:107CE00076D0F701808311507501B1F77BD0F5E4B0
:107CF00010E0F12CE12CDF1619F150E040E063E0D8
:107D0000CE0151D07E0180E6C82ED12CF6014191E2
:107D100051916F0161E0C70146D0F2E0EF0EF11C16
:107D20000250A1F750E040E065E0CE013CD0ADCF7D
:107D30006081C7018C0F9D1F6CD08FEFE81AF80A85
:107D4000F701E05AFF4FE016F10691F79ECF843716
:107D5000D9F43DD03CD0F82E3AD0E82E43D08E0155
:107D600085E4E81209C0C8014CD02DD0FA940F5F09
:107D70001F4FF110F8CF89CFF80185918F0123D0E3
:107D8000FA94F110F9CF81CF853739F42BD08EE1F9
:107D90001AD085E918D082E077CF813509F089CFF4
:107DA00088E01CD086CFFC010A0167BFE89511244A
:107DB00007B600FCFDCF667029F0452B19F481E170
:107DC00087BFE89508955D9BFECF8CB908955F9BB2
:107DD000FECF5C9901C0A8958CB1089598E191BD42
:107DE00081BD0895F4DF803219F088E0F7DFFFCF1E
:107DF00084E1E9CFCF93C82FEADFC150E9F7CF91F3
:107E0000F1CFE199FECF9FBB8EBBE09A99278DB34E
:107E10000895262FE199FECF9FBB8EBB2DBB0FB6D9
:0C7E2000F894E29AE19A0FBE01960895D2
:027FFE00000879
:0400000300007C007D
:00000001FF
